:100000000C942A000C9447000C9447000C94470071
:100010000C9447000C9447000C9447000C94470044
:100020000C9447000C9447000C9447000C94470034
:100030000C9447000C9447000C9447000C94470024
:100040000C9447000C9447000C9447000C94470014
:100050000C94470011241FBECFE5D8E0DEBFCDBF12
:1000600010E0A0E6B0E0E2E0F2E002C005900D9200
:10007000A83AB107D9F720E0A8EAB0E001C01D9284
:10008000A93AB207E1F70E94EC000C94FF000C942F
:1000900000001BB888E18AB986E880BD83E389B98E
:1000A00010BC08955D9BFECF8CB908955F9BFECF79
:1000B0008CB1089529B3287130E035952795359591
:1000C0002795359527952330310531F48091A80087
:1000D0008F5F8093A80008952230310519F4809332
:1000E000A80008954FE55AEE90E0415050409040EE
:1000F000E1F700C00000883008F0806F99B390727B
:100100002115310549F4992391F09091A8009F5F42
:10011000980F9093A8000BC02130310541F4911144
:1001200006C09091A8009F5F980F9093A80085BB90
:100130000895CF93CA9B22C0CA99FECF8091A80090
:1001400090E02091600030916100821793070CF0DD
:10015000FFCFE091A800F0E0EE0FFF1FEE59FF4F38
:10016000C18180810E9452008C2F0E9452000E9407
:1001700056000E945A008091A80088BBCF91089534
:10018000CF938091A80090E02091600030916100B1
:10019000821793070CF0FFCFE091A800F0E0EE0F7C
:1001A000FF1FEE59FF4FC18180810E9452008C2FAA
:1001B0000E9452000E9456000E945A008091A8009E
:1001C00088BB2FE38DE093E0215080409040E1F721
:1001D00000C00000CF91089580EC8ABB1092A80067
:1001E0008FEF87BB84BB0E944900C89BFECFC99B91
:1001F00003C00E94C000F9CF0E949900F6CFF89486
:02020000FFCF2E
:10020200230015302AB023C02301234143A173A147
:10021200704661B673A1704661B673A1704661B64D
:10022200613650A66061113012102781513422F1DB
:1002320031724253310215D235024FD443545374B2
:0802420004E3309353245B83B5
:00000001FF
