:100000000C942A000C9447000C9447000C94470071
:100010000C9447000C9447000C9447000C94470044
:100020000C9447000C9447000C9447000C94470034
:100030000C9447000C9447000C9447000C94470024
:100040000C9447000C9447000C9447000C94470014
:100050000C94470011241FBECFE5D8E0DEBFCDBF12
:1000600010E0A0E6B0E0E4E4F3E102C005900D92F8
:10007000A837B107D9F720E0A8E7B0E001C01D928A
:10008000A039B207E1F70E9414040C94A0090C9463
:100090000000672B09F09FC0009711F4D8980895CD
:1000A0008130910511F4D99808958230910511F4A9
:1000B000DA9808958330910511F4DB98089584301F
:1000C000910511F4DC9808958530910511F4DD98BF
:1000D00008958630910511F4DE98089587309105D2
:1000E00011F4DF9808958A30910511F4C0980895AD
:1000F0008B30910511F4C19808958C30910511F45D
:10010000C29808958D30910511F4C39808958E30EA
:10011000910511F4C49808958F30910511F4C59894
:1001200008958031910511F4C698089581319105A3
:1001300011F4C79808958431910511F4A898089591
:100140008531910511F4A99808958631910511F42E
:10015000AA9808958731910511F4AB9808958831D4
:10016000910511F4AC9808958931910511F4AD9879
:1001700008958A31910511F4AE9808958B31910557
:1001800011F4AF9808958E31910511F49098089567
:100190008F31910511F4919808958032910511F4F1
:1001A000929808958132910511F4939808958232BE
:1001B000910511F4949808958332910511F495985E
:1001C00008958432910511F496980895859709F061
:1001D0009FC097980895009711F4D89A0895813098
:1001E000910511F4D99A08958230910511F4DA9AA3
:1001F00008958330910511F4DB9A089584309105B8
:1002000011F4DC9A08958530910511F4DD9A089572
:100210008630910511F4DE9A08958730910511F426
:10022000DF9A08958A30910511F4C09A08958B30B1
:10023000910511F4C19A08958C30910511F4C29A78
:1002400008958D30910511F4C39A08958E3091056B
:1002500011F4C49A08958F30910511F4C59A089548
:100260008031910511F4C69A08958131910511F4F8
:10027000C79A08958431910511F4A89A089585319B
:10028000910511F4A99A08958631910511F4AA9A5D
:1002900008958731910511F4AB9A0895883191053D
:1002A00011F4AC9A08958931910511F4AD9A08952D
:1002B0008A31910511F4AE9A08958B31910511F4AC
:1002C000AF9A08958E31910511F4909A08958F3167
:1002D000910511F4919A08958032910511F4929A42
:1002E00008958132910511F4939A0895823291050F
:1002F00011F4949A08958332910511F4959A089512
:100300008432910511F4969A0895859709F4979A85
:100310000895CF93C82F80FF07C061E070E082E2AC
:1003200090E00E94490006C060E070E082E290E048
:100330000E944900C1FF07C061E070E083E290E0E5
:100340000E94490006C060E070E083E290E00E94F5
:100350004900C2FF07C061E070E084E290E00E94C3
:10036000490006C060E070E084E290E00E9449002D
:10037000C3FF07C061E070E085E290E00E944900A1
:1003800006C060E070E085E290E00E944900CF91F5
:100390000895CF93C82F60E070E080E290E00E9463
:1003A00049008C2F0E94890161E070E081E290E0B9
:1003B0000E94490089EF90E00197F1F700C000002A
:1003C00060E070E081E290E00E94490089EF90E0F7
:1003D0000197F1F700C00000CF910895CF93C62F89
:1003E000813059F480E8860F82958F700E94C90190
:1003F0008C2F8F700E94C9010CC0823051F480ECA8
:10040000860F82958F700E94C9018C2F8F700E9479
:10041000C901CF91089580E00E94890187E893E1A6
:100420000197F1F700C0000083E00E94C90181EE4E
:1004300094E00197F1F700C0000083E00E94C90139
:100440008DEB9AE00197F1F700C0000083E00E9475
:10045000C90182E00E94C90182E00E94C90188E0CE
:100460000E94C90180E00E94C9018CE00E94C9017C
:1004700080E00E94C90186E00E94C9010895CF93DF
:10048000C82F61E070E080E290E00E9449008C2F6C
:1004900082958F700E94890161E070E081E290E0B6
:1004A0000E94490089EF90E00197F1F700C0000039
:1004B00060E070E081E290E00E94490089EF90E006
:1004C0000197F1F700C000008C2F8F700E94890106
:1004D00061E070E081E290E00E94490089EF90E0E5
:1004E0000197F1F700C0000060E070E081E290E069
:1004F0000E94490089EF90E00197F1F700C00000E9
:10050000CF910895CF93DF93EC018881882331F058
:1005100021960E943F0289918111FBCFDF91CF91FB
:1005200008951BB888E18AB986E880BD83E389B95C
:1005300010BC08955D9BFECF8CB908955F9BFECFE4
:100540008CB1089590937B0080937A00709385001E
:100550006093840050937F0040937E00FC01EA5931
:10056000FF4F9081FB01EA59FF4F208130E1939FBB
:10057000C0011124822B88BB089590937B00809347
:100580007A0070937F0060937E0050938B004093BD
:100590008A00FC01EA59FF4F80818295807F482BB9
:1005A00048BB089590937B0080937A0070938500F8
:1005B0006093840050938B0040938A00FC01EA59B9
:1005C000FF4F80818295807F482B48BB0895813002
:1005D000910549F09C01235031092230310518F072
:1005E0008A30910521F410928100109280009C01C4
:1005F0002B5031092230310530F08830910519F047
:100600008F30910531F421E030E030938100209368
:1006100080008E30910519F08930910531F422E087
:1006200030E030938100209380008230910519F0F2
:100630008D30910531F423E030E030938100209338
:1006400080008530910539F485E090E09093810039
:100650008093800008958730910539F486E090E01A
:1006600090938100809380000895892B31F484E079
:1006700090E09093810080938000089588309105E8
:1006800029F4109289001092880008958F30910506
:1006900039F481E090E09093890080938800089578
:1006A000069739F482E090E0909389008093880067
:1006B000089583E090E090938900809388000895E6
:1006C0008430910539F481E090E090938300809329
:1006D000820008950A9729F41092830010928200F4
:1006E000089582E090E090938300809382000895C3
:1006F000CF92DF92EF92FF920F931F93CF93DF93EE
:100700008C01012F112702950F70E92EFF242FE095
:10071000E222FF246C01D694C794D694C794D69451
:10072000C794D694C7942FE0C222DD24EC01CF7089
:10073000DD27C70182959295907F9827807F982723
:100740008C299D299093870080938600C8010E9480
:10075000E702BE01C8010E943E03C8010E94600377
:10076000C8010E97029738F00330110520F0C80138
:100770008B7F089729F4AE01B601C7010E94A2023F
:10078000C8018B7F039741F0C8010997039720F0B8
:10079000C801877F059729F4AE01B601C7010E9401
:1007A000BD020430110529F4AE01B601C7010E9453
:1007B000D202DF91CF911F910F91FF90EF90DF90C8
:1007C000CF900895EF92FF920F931F93CF93DF93F3
:1007D0007C01FC0101900020E9F7EC01CE1BDF0B4E
:1007E00025961C161D061CF00E94590616C085E0B1
:1007F00090E00E9438058C01009771F0AE0160E333
:1008000070E00E947306B701C8018C0F9D1F0E9403
:100810007A06802F912F01C0912FDF91CF911F91E8
:100820000F91FF90EF900895CF93DF93CDB7DEB790
:10083000EC970FB6F894DEBF0FBECDBF80E884BF43
:1008400084BF8FE08ABB8FEF87BB84B38F6784BB85
:1008500081B38C6F81BB0E9491020E940B0206E65D
:1008600010E00F2EFEE6CF2EF0E0DF2EF02DCE01B1
:1008700001964C015E0190E1A90EB11CF801828144
:100880008F7042E0BE01675D7F4F90E00E9481065D
:100890000E94E203782E692EF80181818F7042E078
:1008A000BE016C5D7F4F90E00E9481060E94E203D2
:1008B000F82EE92EF80186818F7042E0BE01615E5C
:1008C0007F4F90E00E9481060E94E2036F927F9228
:1008D000EF92FF929F938F93DF92CF929F928F928E
:1008E0000E94A606F80185818F7042E0BE01685C17
:1008F0007F4F90E00E9481060E94E203782E692ECD
:10090000F80184818F7042E0BE016D5C7F4F90E002
:100910000E9481060E94E203F82EE92EF8018381ED
:100920008F7042E0BE01625D7F4F90E00E948106C1
:100930000E94E2036F927F92EF92FF929F938F93B8
:10094000DF92CF92BF92AF920E94A60660E081E054
:100950000E94EE01C4010E94820260E082E00E94D7
:10096000EE01C5010E9482020E949E0290E09093D7
:100970007D0080937C000E949E0220917C0030913B
:100980007D00382B30937D0020937C00E0907C002C
:10099000F0907D00EF2CFF24E694E694E694E69434
:1009A00080917C0090917D000E94780340918800A6
:1009B0005091890080918000909181002091820067
:1009C000309183004295440F407E880F880F842B1E
:1009D000822B85BBFFE926E881E0F1502040804072
:1009E000E1F700C000000FB6F894DEBF0FBECDBF28
:1009F000F4E0EF16F104B9F5E0918400F091850080
:100A0000EA59FF4F80818BBB2AC02FE0E216F10428
:100A1000B9F086E0E816F104D9F089B382958F70B9
:100A2000E0917E00F0917F00EA59FF4F808317C06C
:100A300080917C0090917D008F700E949A021ECF61
:100A400080917C0090917D008F700E949A0216CF59
:100A500080918600909187000E949A020FCF80E0DB
:100A60000E949A020BCF98E0E916F10471F6E0CFEC
:100A70000F931F93CF93DF938230910510F482E0A0
:100A800090E0E0918E00F0918F0020E030E0A0E057
:100A9000B0E0309719F140815181028113814817EC
:100AA0005907C8F08417950769F4109731F012962A
:100AB0000C93129713961C9327C000938E001093EB
:100AC0008F0022C02115310519F04217530718F481
:100AD0009A01BD01EF01DF01F801DBCF21153105DE
:100AE000F9F0281B390B2430310580F48A819B8171
:100AF0006115710521F0FB019383828304C09093FB
:100B00008F0080938E00FE01329644C0FE01E20FFA
:100B1000F31F8193919322503109398328833AC07E
:100B200020918C0030918D00232B41F420916200A4
:100B30003091630030938D0020938C0020916000F1
:100B4000309161002115310541F42DB73EB7409138
:100B5000640050916500241B350BE0918C00F091EE
:100B60008D00E217F307A0F42E1B3F0B281739075F
:100B700078F0AC014E5F5F4F2417350748F04E0FF9
:100B80005F1F50938D0040938C008193919302C01E
:100B9000E0E0F0E0CF01DF91CF911F910F91089538
:100BA000CF93DF93009709F481C0FC013297138241
:100BB0001282A0918E00B0918F00109781F4208155
:100BC0003181820F931F20918C0030918D00281766
:100BD000390751F5F0938D00E0938C0067C0ED016B
:100BE00020E030E0CE17DF0740F44A815B819E01B0
:100BF00041155105F1F0EA01F5CFD383C28340815D
:100C00005181840F951FC817D90759F4888199819C
:100C1000840F951F0296918380838A819B819383A1
:100C200082832115310529F4F0938F00E0938E0023
:100C30003DC0E901FB83EA8349915991C40FD51F57
:100C4000EC17FD0761F480819181840F951F029656
:100C5000E90199838883828193819B838A83E0E081
:100C6000F0E012968D919C911397009719F0FD0179
:100C7000DC01F7CF8D919C9111979D012E5F3F4F25
:100C8000820F931F20918C0030918D002817390717
:100C900069F4309729F410928F0010928E0002C0F0
:100CA00013821282B0938D00A0938C00DF91CF91BC
:100CB00008950F931F93CF93DF938C01FC01019054
:100CC0000020E9F7CF01801B910B0E943805EC0151
:100CD000009719F0B8010E947A06CE01DF91CF91FA
:100CE0001F910F910895DC0101C06D934150504058
:100CF000E0F70895FB01DC0101900D920020E1F77F
:100D00000895BB274A3031F4992322F4BDE290952F
:100D100081959F4F0C948D06BB27FB015527AA2771
:100D2000880F991FAA1FA41710F0A41B8395505178
:100D3000B9F7A05DAA3308F0A95DA193009779F7F0
:100D4000B111B1931192CB010C94BF08AEE0B0E0A9
:100D5000ECEAF6E00C9477090D891E8986E08C8315
:100D60001A8309838FEF9FE79E838D83AE01475ED1
:100D70005F4F6F89788DCE0101960E94C806EF8182
:100D8000F885E00FF11F10822E96E4E00C94930991
:100D9000ABE0B0E0EEECF6E00C9469096C017B018D
:100DA0008A01FC0117821682838181FFCCC1CE01AA
:100DB00001963C01F6019381F70193FD859193FF24
:100DC00081917F01882309F4BAC1853239F493FDFA
:100DD000859193FF81917F01853229F4B60190E0DE
:100DE0000E94CF08E7CF912C212C312CFFE1F31585
:100DF000D8F08B3279F038F4803279F08332A1F474
:100E0000232D20611DC08D3261F0803369F4232DC4
:100E1000216016C0832D8260382EE32DE4603E2EC3
:100E20002AC0F32DF8601DC037FC2DC020ED280F1F
:100E30002A3040F08E32B9F436FC81C1232D206473
:100E4000322E19C036FE06C08AE0989E200D11246D
:100E5000922E11C0EAE02E9E200D1124222EF32D99
:100E6000F0623F2E08C08C3621F4832D8068382E26
:100E700002C0883641F4F70193FD859193FF81917B
:100E80007F018111B3CF982F9F7D9554933028F423
:100E90000C5F1F4F9FE399830DC0833631F083377A
:100EA00071F0833509F059C021C0F8018081898330
:100EB0000E5F1F4F88248394912C530113C0280187
:100EC000F2E04F0E511CF801A080B18036FE03C045
:100ED000692D70E002C06FEF7FEFC5010E94B4087A
:100EE0004C018201F32DFF773F2E16C0280122E02E
:100EF000420E511CF801A080B18036FE03C0692D5E
:100F000070E002C06FEF7FEFC5010E94A9084C019D
:100F1000F32DF0683F2E820133FC1BC0822D90E040
:100F200088169906B0F4B60180E290E00E94CF08DE
:100F30002A94F4CFF50137FC859137FE81915F014A
:100F4000B60190E00E94CF0821102A9421E0821A75
:100F500091088114910471F7E8C0843611F0893644
:100F600041F5F80137FE07C060817181828193816C
:100F70000C5F1F4F08C060817181072E000C880B29
:100F8000990B0E5F1F4FF32DFF763F2E97FF09C081
:100F900090958095709561957F4F8F4F9F4FF0682A
:100FA0003F2E2AE030E0A3010E940B09882E86180C
:100FB00045C0853731F4232D2F7EB22E2AE030E054
:100FC00025C0932D997FB92E8F36C1F018F488353E
:100FD00079F0B5C0803719F0883721F0B0C0E92F1B
:100FE000E061BE2EB4FE0DC0FB2DF460BF2E09C023
:100FF00034FE0AC0292F2660B22E06C028E030E059
:1010000005C020E130E002C020E132E0F801B7FE87
:1010100007C060817181828193810C5F1F4F06C080
:101020006081718180E090E00E5F1F4FA3010E94FC
:101030000B09882E8618FB2DFF773F2E36FE0DC03C
:10104000232D2E7FA22E891458F434FE0BC032FCBF
:1010500009C0832D8E7EA82E05C0B82CA32C03C0FA
:10106000B82C01C0B92CA4FE0FC0FE01E80DF11D83
:101070008081803321F49A2D997EA92E09C0A2FE89
:1010800006C0B394B39404C08A2D867809F0B39453
:10109000A3FC11C0A0FE06C0B21488F4280C922C48
:1010A0009B180EC0B21460F4B60180E290E00E947A
:1010B000CF08B394F7CFB21418F42B1802C0982CB1
:1010C000212CA4FE10C0B60180E390E00E94CF085E
:1010D000A2FE17C0A1FC03C088E790E002C088E52B
:1010E00090E0B6010CC08A2D867859F0A1FE02C0AE
:1010F0008BE201C080E2A7FC8DE2B60190E00E9485
:10110000CF08891438F4B60180E390E00E94CF083C
:101110009A94F7CF8A94F301E80DF11D8081B6010E
:1011200090E00E94CF088110F5CF222009F442CE32
:10113000B60180E290E00E94CF082A94F6CFF60133
:101140008681978102C08FEF9FEF2B96E2E10C948E
:101150008509FC010590615070400110D8F7809519
:1011600090958E0F9F1F0895FC0161507040019073
:101170000110D8F7809590958E0F9F1F0895DC0180
:10118000FC01672F71917723E1F7329704C07C91BE
:101190006D9370836291AE17BF07C8F308950F93E4
:1011A0001F93CF93DF93FB01238121FD03C08FEFBA
:1011B0009FEF2CC022FF16C04681578124813581C4
:1011C0004217530744F4A081B1819D012F5F3F4F27
:1011D000318320838C93268137812F5F3F4F378364
:1011E000268314C08B01EC01FB010084F185E02D06
:1011F0000995892BE1F6D80116968D919C91179748
:10120000019617969C938E931697CE01DF91CF91FE
:101210001F910F910895FA01AA27283051F120312A
:1012200081F1E8946F936E7F6E5F7F4F8F4F9F4F7A
:10123000AF4FB1E03ED0B4E03CD0670F781F891FBC
:101240009A1FA11D680F791F8A1F911DA11D6A0F8A
:10125000711D811D911DA11D20D009F468943F913D
:101260002AE0269F11243019305D3193DEF6CF013C
:101270000895462F4770405D4193B3E00FD0C9F702
:10128000F6CF462F4F70405D4A3318F0495D31FD6F
:101290004052419302D0A9F7EACFB4E0A6959795C2
:1012A000879577956795BA95C9F700976105710598
:1012B00008959B01AC010A2E0694579547953795E2
:1012C0002795BA95C9F7620F731F841F951FA01D3C
:1012D00008952F923F924F925F926F927F928F92DA
:1012E0009F92AF92BF92CF92DF92EF92FF920F93B5
:1012F0001F93CF93DF93CDB7DEB7CA1BDB0B0FB6BF
:10130000F894DEBF0FBECDBF09942A88398848887B
:101310005F846E847D848C849B84AA84B984C88411
:10132000DF80EE80FD800C811B81AA81B981CE0F08
:10133000D11D0FB6F894DEBF0FBECDBFED010895ED
:04134000F894FFCF4F
:101344000000900020000000000000000F00257342
:08135400202573202573000021
:00000001FF
