S013000044617461204D656D6F72792E73726563FE
S11300000C942A000C9447000C9447000C9447006D
S11300100C9447000C9447000C9447000C94470040
S11300200C9447000C9447000C9447000C94470030
S11300300C9447000C9447000C9447000C94470020
S11300400C9447000C9447000C9447000C94470010
S11300500C94470011241FBECFE5D8E0DEBFCDBF0E
S113006010E0A0E6B0E0E2E3F1E002C005900D92FA
S1130070A036B107D9F720E0A0E6B0E001C01D9298
S1130080A036B207E1F70E9449000C9497000C9443
S11300900000CF93DF93CDB7DEB760970FB6F89427
S11300A0DEBF0FBECDBF80E884BF84BFFE013196A2
S11300B080E1DF011D928A95E9F780EF8ABB9FEF0B
S11300C097BB9CEF94BB81BB18BA83B3837083BB8B
S11300D080B38F7080BB83B381110BC080B3E1E028
S11300E0F0E0EC0FFD1FE80FF11D80818295807F09
S11300F08BBB83B3813051F490B389B3E1E0F0E07A
S1130100EC0FFD1FE90FF11D8F70808383B38230E4
S113011021F480B38295807F8BBB80B3E1E0F0E073
S1130120EC0FFD1FE80FF11D808188BBCECFF89442
S1050130FFCFFB
S9030000FC
