:100000000C942A000C9434000C9434000C943400AA
:100010000C9434000C9434000C9434000C94340090
:100020000C9434000C9434000C9434000C94340080
:100030000C9434000C9434000C9434000C94340070
:100040000C9434000C9434000C9434000C94340060
:100050000C94340011241FBECFE5D8E0DEBFCDBF25
:100060000E9436000C9488000C9400001ABA17BA4B
:100070008FEF84BB81BB20E051E040E070E060E0A6
:1000800086B385BB382F3F7082958F7099B39111DD
:1000900003C0232F280F2CC099B3913019F4282FB7
:1000A000231B26C099B3923019F4232F282320C094
:1000B00099B3933019F4232F282B1AC099B3943095
:1000C00021F4832B282F209513C099B3953031F458
:1000D000282F01C0220F3A95EAF70AC099B396304B
:1000E00039F490E002C0959587953A95E2F7282F6C
:1000F000852F942F222311F0872F962F829592958A
:10010000907F9827807F98272F70282B22BBB8CF0D
:04011000F894FFCF91
:00000001FF
